:1000000000308A0004280000FF238316900000308F
:100010008A0083282C308400000803191D28013031
:10002000A100A001A00B1228A10B11284A30A000AA
:10003000A00B18281B28800B0F2808008316851595
:1000400083122C1085192C14831685148312AC107E
:100050008518AC148316051483122C1105182C1561
:100060002C0828060139031D3728A9014028A90AB0
:100070002908043C0318402828102C182814A9012A
:100080002C0828060239031D4728AA015028AA0A6D
:100090002A08043C03185028A810AC18A814AA0178
:1000A0002C0828060439031D5728AB016028AB0A29
:1000B0002B08043C0318602828112C192815AB01C3
:1000C000A82883160512831205120830A10068289B
:1000D0000000A1177928A113AC0C03180516031C06
:1000E0000512211779282113A10B6C28772800000D
:1000F00005161C308400840B7B287E28A11B6B28EE
:10010000211B7328080003081F398300831605127A
:1001100083120516A530A4003C30A5007E30A60051
:100120005A30A7002810A8102811A901AA01AB0174
:1001300007309900EF3083168500051283120516EB
:100140008316051183120511C830AC000A201E2841
:10015000281CB9282408AC006120831605118312DD
:100160000515C830AC000A2083160511831205114D
:10017000E928A81CCA282508AC00612083160511AF
:1001800083120515C830AC000A20831605118312AE
:100190000511E928281DDB282608AC0061208316FC
:1001A000051183120515C830AC000A20831605110D
:1001B00083120511E9282708AC0061208316051178
:1001C00083120515C830AC000A208316051183126E
:0C01D00005110A30AC000A20A7286300CB
:02400E00C431BB
:00000001FF
;PIC12F629
;CRC=2C6E  CREATED="30-Nis-25 16:13"
