:1000000000308A0004280000FF238316900000308F
:100010008A00402829308400000803191D28013077
:10002000A100A001A00B1228A10B11284A30A000AA
:10003000A00B18281B28800B0F2808008316051218
:10004000831205120830A10025280000A1173628C8
:10005000A113A90C03180516031C05122117362835
:100060002113A10B29283428000005161C30840018
:10007000840B38283B28A11B2828211B3028080086
:1000800003081F3983008316051283120516A53055
:10009000A4003C30A5007E30A600C830A700073081
:1000A0009900EF308316850005128312051683161A
:1000B0000511831205112708A9000A20831685154A
:1000C0008312281085192814831685148312A8100A
:1000D0008518A814831605148312281105182815ED
:1000E000281C81282408A9001E20831605118312CC
:1000F00005152708A9000A2083160511831205118A
:10010000A228A81C92282508A9001E2083160511E4
:10011000831205152708A9000A20831605118312EA
:100120000511A228281DA2282608A9001E20831632
:100130000511831205152708A9000A208316051149
:0E014000831205110A30A9000A205E28630010
:02400E00C431BB
:00000001FF
;PIC12F629
;CRC=D586  CREATED="30-Nis-25 16:11"
